:100000000C9434000C943E000C943E000C943E0082
:100010000C943E000C943E000C943E000C943E0068
:100020000C943E000C943E000C943E000C943E0058
:100030000C943E000C943E000C943E000C943E0048
:100040000C943E000C943E000C943E000C943E0038
:100050000C943E000C943E000C943E000C943E0028
:100060000C943E000C943E0011241FBECFEFD8E04C
:10007000DEBFCDBF0E9440000C9467000C940000CE
:1000800087B1816087B98AB18FEF8AB9319BFECF82
:1000900088B1816088B980E890E827E033E03A953C
:1000A000F1F700008BB933E03A95F1F700001F99A2
:1000B00003C0392F30958323211105C08BB988B136
:1000C0008E7F88B9E3CF21509695892BE7CFF8949E
:0200D000FFCF60
:00000001FF